:020000040000FA
:10000000000000EB330000EB2C008FE2000C90E8C6
:1000100000A08AE000B08BE001704AE20B005AE1D8
:100020000000001A2B0000EB0F00BAE818E04FE2C6
:10003000010013E303F0471013FF2FE1700F0000DE
:10004000900F0000102052E27800B0287800A1281C
:10005000FBFFFF8A822EB0E13000B0283000A128DB
:1000600000409045004081451EFF2FE10030B0E385
:100070000040B0E30050B0E30060B0E3102052E273
:100080007800A128FCFFFF8A822EB0E13000A12871
:10009000003081451EFF2FE101C08FE21CFF2FE1E0
:1000A0001FB500F079FF0098019900F0C0FD00F045
:1000B000B1FA059886460FBC009C02B0704700005C
:1000C00001C08FE21CFF2FE130B4754600F00DFB3C
:1000D000AE4630BC70470000B90100EB0210A0E151
:1000E000ECFFFFEB1CC09FE50FC08CE001001CE3A0
:1000F0000DE08F120FE0A0011CFF2FE101C08FE285
:100100001CFF2FE100F02AFD8C0200007847C0465A
:10011000EAFFFFEB420300EB0C009FE50C109FE5AC
:1001200004209FE508309FE51EFF2FE1600100409D
:1001300060050040600100400100A0E380129FE5DF
:100140008000C1E52400A0E38400C1E5AA00A0E38B
:100150008C00C1E55500A0E38C00C1E50000A0E1E2
:100160005C029FE5B808D0E10000A0E3000050E386
:10017000FAFFFF1A0300A0E344129FE58000C1E5E7
:10018000AA00A0E38C00C1E55500A0E38C00C1E506
:100190000100A0E30001C1E51EFF2FE10010A0E374
:1001A00020229FE5701082E51C129FE50C1082E56D
:1001B0000010A0E3081082E50110A0E3041082E51E
:1001C0000000A0E1FC119FE5081091E5000051E15D
:1001D000FBFFFF3A0110A0E3E8219FE5041082E550
:1001E0001EFF2FE1640050E30F0000AA000051E35E
:1001F0000600001AD4219FE50C2092E50130A0E30F
:10020000132082E1C4319FE50C2083E5180000EA49
:10021000B8219FE5042092E50130A0E3132082E19C
:10022000A8319FE5042083E5110000EA640050E353
:100230000F0000DA640040E2000051E30600001AFB
:1002400088219FE51C2092E50130A0E3132082E184
:1002500078319FE51C2083E5050000EA6C219FE5CD
:10026000142092E50130A0E3132082E15C319FE588
:10027000142083E51EFF2FE10010A0E1640051E38C
:10028000080000AA44219FE5002092E50130A0E388
:10029000130112E10100000A0100A0E30C0000EAD2
:1002A0000000A0E30A0000EA640051E3080000DA5D
:1002B000641041E214219FE5102092E50130A0E393
:1002C000130112E10100000A0100A0E3000000EAAE
:1002D0000000A0E31EFF2FE10500A0E3F0109FE562
:1002E000000081E58300A0E30015C1E10C00C1E539
:1002F0008700A0E30000C1E50100A0E30400C1E520
:100300000300A0E30C00C1E51EFF2FE1C4109FE530
:100310000000C1E50000A0E1B8109FE51410D1E590
:10032000200011E3FBFFFF1A1EFF2FE10000A0E1F8
:10033000A0109FE51410D1E5010011E3FBFFFF1AA7
:1003400090109FE50000D1E51EFF2FE104E02DE5B0
:100350000020A0E10030A0E3020000EA0300D2E7A1
:10036000E9FFFFEB013083E20300D2E7000050E336
:10037000F9FFFF1A04E09DE41EFF2FE110402DE974
:100380006CFFFFEB44009FE5080090E5020980E365
:1003900038109FE5080081E5CEFFFFEB5800A0E391
:1003A000D9FFFFEB5800A0E3D7FFFFEB030000EA03
:1003B00024008FE20D0000EB2C009FE576FFFFEBA1
:1003C000FAFFFFEA00C01FE0004000E05FEA000023
:1003D000008002E000C002E000C000E052616869F5
:1003E0006D2050617468616E0A000000400D0300CA
:1003F00001C08FE21CFF2FE110B5040008E009499D
:1004000000F0B8FD401C03D1401E10BC08BC1847CA
:100410002078641C0028F2D102490A2000F0AAFDCD
:10042000F3E700005C000040704770477047000031
:10043000F8B50500C8680C000521C90488430121EE
:1004400089050843E060800602D5200000F0D3FA59
:100450006E49E0680140022903D0200000F06CFAE8
:10046000B6E00521012249030140D20391420FD198
:10047000C00306D56168E06A884200D80800606061
:1004800006E02069E0626060606900F094F9A061B4
:10049000A0682D0600222D0E002811DAE1688B05D8
:1004A0000ED4C043A0600920226040030143E160F4
:1004B000616828004A1C62600D70F8BC08BC1847CF
:1004C000E068012149030843E060002020602069C2
:1004D000002829D1606900F05DF90126F6020028A4
:1004E00013D0E0688105890F07D0E06900F09AF920
:1004F00020616060E068304315E021002431216113
:1005000061600121E16189020CE0E06900F08AF993
:1005100020616060E0683043E0608105890F03D1AD
:10052000FF2101310843E060E368394F2669D805AF
:100530001FD56168E06A884200D80800811B05D099
:100540002200300000F002FA002841D1E1680802E0
:1005500004D5E66200206660A06051E0701CE06295
:100560006060E0693943401E083403C428003570D8
:10057000A3E7180201D53B400AE060680123411C53
:1005800061600570E06838430A2DE06000D0002308
:10059000E26A6068824201D9110000E00100E76868
:1005A000891B7F0504D4E7698F4201DD002B1DD034
:1005B000824200D80200171A0020E6626660002915
:1005C000A06008DD2200300000F0C0F9002802D051
:1005D0000020C04371E7002F08D0A069E662666082
:1005E000C01BA061E06810210843E060E0680002E1
:1005F00009D56168A069E662891B40186660A06140
:100600000120C04359E7280057E70000821000008E
:100610000000010010B54248502100F0ADFA4148F9
:10062000502100F0A9FA4048502100F0A5FA3F48B7
:100630003B493F4A3F4B01603A4810603A4A1A60D2
:10064000C864C2643D480A003BA1784400F0F8F950
:10065000002804D1394878440C3800F085FA39482C
:10066000304A37A1784400F0EBF9002804D135482E
:1006700078440C3800F078FA33482B4A30A178449B
:1006800000F0DEF9002804D12F4878440C3800F03F
:100690006BFA01242248640222000021402300F06A
:1006A00023F9002804D0254878445E3800F05CFA2D
:1006B0001C4822000021402300F016F9002804D035
:1006C000204878445E3800F04FFA17482200002195
:1006D000102300F009F9002804D01B4878445E3844
:1006E00000F042FA10BC08BC18470F4870B5C46C43
:1006F0000B4800F00FFA0B4800F00CFA0A4800F023
:1007000009FA07E0E56C200000F004FA200000F090
:10071000C0F82C00002CF5D170BC08BC18470000B4
:100720000C0000405C000040AC00004000000040B5
:100730000400004008000040720000005209000060
:10074000770000003C090000260900000EB56A464B
:1007500003C200F043FB029069460120ABDF03B007
:1007600008BC184708B5694600900220ABDF01B00D
:10077000F6E71FB56C4607C469460520ABDF04B039
:1007800010BC08BC18471FB56C460FC4694606204C
:10079000ABDFF4E708B5694600900920ABDFE6E778
:1007A0001CB56A4603C269460A20ABDF1CBC08BC04
:1007B00018470020704708B5694600900C20ABDF51
:1007C000D5E700000E50A0E1000100EB05E0A0E13C
:1007D0000050B0E10D10A0E10A30A0E10700C0E335
:1007E00000D0A0E160D08DE220402DE949FEFFEB72
:1007F0002040BDE80060A0E30070A0E30080A0E31B
:1008000000B0A0E30710C1E305C0A0E1C009ACE857
:10081000C009ACE8C009ACE8C009ACE801D0A0E16F
:100820001EFF2FE170B5040000F0DAF90668201D04
:10083000082800D20820C01DC508ED00A54224D913
:100840007068340000281AD00168A94213D30A0046
:10085000290008318A4208D3426841194A60026877
:10086000521B0A606160056001E04168616070BC14
:10087000001D08BC1847040040680028E4D1290086
:10088000300000F0BBF90028DAD170BC002008BCB1
:10089000184770B50500041F00F0A2F90168002D8B
:1008A0001AD0486801E001004068002801D0A04249
:1008B000F9D30A685318A34204D12368D2180C0054
:1008C0000A6000E04C6021680A19824207D1426840
:1008D000626000680818206070BC08BC184760603F
:1008E00070BC08BC1847000070B4C468A50713D0DA
:1008F000650211D4D51FF93D0AD0FF3D013D07D057
:10090000FF3DFF3D023D07D101002431012306E0F8
:10091000084E5D1EB54202D3012070BC70470161D4
:10092000C36141600F2109028C431443C46000205D
:10093000F3E70000FFFFFF00C1688022114392032C
:100940009143C1600021816001607047F7B50E00DE
:1009500014003948D5685769054209D0A1693800A3
:10096000FFF71EFF002816DB3348C0430540E56053
:1009700000992B0032003800FFF7FBFEE1680122EE
:10098000920411434200E160A1695208B21A891829
:100990000028A16104D02000FFF7CEFF0020C04353
:1009A000FEBC08BC184770B504000569C06A6168E0
:1009B000884200D80800E1680522D2049143E16032
:1009C000C90316D5A8420BD0411B22002800FFF70F
:1009D000BDFF002804D00020C04370BC08BC1847ED
:1009E000E56200206560A060E06801210904884399
:1009F000E0600020F1E710B50400C06820218843C2
:100A0000E060A16AA06988420ED02000FFF7CBFF0A
:100A1000E06803210903884310210843E060A06ACD
:100A2000A0612069E06260600449E0680840E0601D
:100A300010BC08BC1847000010000200BFBFFFFF39
:100A4000F7B50E001700100000F064F83078761C3F
:100A5000612809D0722804D0772823D102250424E4
:100A600004E00125002401E0284D0824022103228E
:100A700001233078761C2B2805D0622806D104206B
:100A800005431C43F5E715430C43F2E7203EF07F96
:100A9000742801D11020044300982100FFF756FE6E
:100AA000411C03D10020FEBC08BC1847002139615D
:100AB00079600121FD604902F9617861200704D560
:100AC00002220021380000F0E9F83800EBE7F8B521
:100AD00005000F4C0E00E068800701D122000BE0FA
:100AE000E06C00280FD15020FFF79CFE070050213A
:100AF000E06400F041F83A0031002800FFF7A0FF61
:100B0000F8BC08BC18470400E5E7000002800000BC
:100B10000C000040FEB5040010300F4F41C801909A
:100B2000E56800200090A80707D02000FFF73BFFF2
:100B30003000FFF717FE002803DA3800FEBC08BCBF
:100B40001847280502D50198FFF7A3FE4821200089
:100B500000F012F80098F1E7FFFFFFFF0400C04625
:100B6000C0462000FFF7D2FA10B500F01BF900F0E4
:100B700011F910BC08BC18477847C0460020A0E314
:100B800000402DE90230A0E102C0A0E102E0A0E1B6
:100B9000201051E20C50A0280C50A0282010512207
:100BA000FBFFFF2A011EB0E10C50A0280C00A0485A
:100BB0000040BDE80111B0E1042080241EFF2F0198
:100BC000B220C040010111E30120C0141EFF2FE13B
:100BD00000009FE51EFF2FE1FC0000401EFF2FE1FB
:100BE0007847C04604009FE51EFF2FE11EFF2FE15E
:100BF00004010040704770477047704738B50400E3
:100C00000A0069460020C046C046002805D0020000
:100C10000099200000F012F9012038BC08BC1847E8
:100C200010B5012000F064F910BC08BC1847F8B5F5
:100C3000C046C04605000C0000201020C04606003B
:100C40002818A0420DD9694632000020C046C0468F
:100C5000070001D100F04CF90098A04200D0050037
:100C6000C419FFF7BDFFF61D0700F1080560C900B4
:100C700028004E1900F00AF8B44204D03868A21BCC
:100C8000310000F0DBF8F8BC08BC18470021016017
:100C9000416080607047102070470000F8B5040084
:100CA0000D004069E16816000700890730D0FFF7A2
:100CB00071FD00282CD130001026002826D00128F4
:100CC00010D0022824D13800FFF775FDE1683143C8
:100CD0000028E1600BDA2000FFF72EFE0120F8BCAF
:100CE00008BC1847200000F0C4F845190EE0C903FD
:100CF0000BD56268E16A914200D90A00A1695118D6
:100D00002269891A814200DD08002D18002D01DAC0
:100D10000220E4E7E16A6068E268814206D291035A
:100D2000E06203D5012149048A433243A669AE42F9
:100D300011DCE16A814201D90B0000E003009F1938
:100D40002369FF1AAF4206DD814201D90F0000E09E
:100D500007009F4206D1202002430020A060A56228
:100D600020600DE0AD1BE669AE1B8142A66000D994
:100D70000800C01A281A2060581960602020824399
:100D8000034802400020E26040342071A7E70000E1
:100D9000BFCFD7FF10B5002801D000F041F810BC3C
:100DA00008BC1847010010B503A000F085F810BC7E
:100DB000012008BC1847000053494752545245448B
:100DC0003A2052656469726563743A2063616E27E4
:100DD00074206F70656E3A200000000030B4441C2F
:100DE00006E00178401C002902D1001B30BC70478E
:100DF0008107F6D1094BDD0104C8D11A914329407E
:100E0000FAD0001B0A0601D0C01EEFE70A0401D089
:100E1000801EEBE70902E9D0401EE7E7010101016E
:100E20007847C0460C109FE51800A0E3563412EF37
:100E30001EFF2FE1A8FDFFFF2600020010B543684A
:100E400001E018005B68002B01D08B42F9D30368E6
:100E50001B188B4206D0C81CC008C000001D411AD8
:100E6000521A0100081D0A60FFF713FD10BC08BCF0
:100E7000184710B5C2680100900707D100F048F884
:100E800001210160881E10BC08BC1847900601D5DE
:100E9000886A04E08B694868C0180B69C01A403141
:100EA0000B79002B02D04979401AECE71103EAD5FF
:100EB0000028E8DD401EE6E770B504000D000A20BA
:100EC00000E0641C00F01CF8002C06D020780028FC
:100ED000F7D102E06D1C00F013F8002D02D0287845
:100EE0000028F7D10A2000F00BF870BC08BC1847A6
:100EF00010B500F017F8FFF74DFF10BC08BC1847FD
:100F000008B5694600900320ABDF01B008BC184764
:100F10007847C04604009FE51EFF2FE11EFF2FE12A
:100F2000FC000040002110B5012800D103A109A058
:100F3000FFF7C2FF10BC012008BC18473A204865E3
:100F40006170206D656D6F727920636F727275705C
:100F50007465640053494752544D454D3A204F75CE
:100F600074206F662068656170206D656D6F7279A1
:100F70000000000010B58A68002A04DCFFF758FA68
:100F800010BC08BC1847521E8A604A680006000E52
:100F9000531C4B601070F3E77847C0461EFF2FE1EB
:100FA0003A7474003A7474003A747400CC0F000000
:100FB000000000400C00000044000000D80F0000BA
:100FC0000C000040DC0500006C0000000000000088
:080FD000000000000000000019
:0400000500000000F7
:00000001FF
